{
  "_format": "hh-sol-artifact-1",
  "contractName": "FlashLoan",
  "sourceName": "contracts/FlashLoan.sol",
  "abi": [
    {
      "inputs": [
        {
          "internalType": "address",
          "name": "_addressProvider",
          "type": "address"
        }
      ],
      "stateMutability": "nonpayable",
      "type": "constructor"
    },
    {
      "inputs": [],
      "name": "ADDRESSES_PROVIDER",
      "outputs": [
        {
          "internalType": "contract IPoolAddressesProvider",
          "name": "",
          "type": "address"
        }
      ],
      "stateMutability": "view",
      "type": "function"
    },
    {
      "inputs": [],
      "name": "POOL",
      "outputs": [
        {
          "internalType": "contract IPool",
          "name": "",
          "type": "address"
        }
      ],
      "stateMutability": "view",
      "type": "function"
    },
    {
      "inputs": [
        {
          "internalType": "address",
          "name": "asset",
          "type": "address"
        },
        {
          "internalType": "uint256",
          "name": "amount",
          "type": "uint256"
        },
        {
          "internalType": "uint256",
          "name": "premium",
          "type": "uint256"
        },
        {
          "internalType": "address",
          "name": "initiator",
          "type": "address"
        },
        {
          "internalType": "bytes",
          "name": "params",
          "type": "bytes"
        }
      ],
      "name": "executeOperation",
      "outputs": [
        {
          "internalType": "bool",
          "name": "",
          "type": "bool"
        }
      ],
      "stateMutability": "nonpayable",
      "type": "function"
    },
    {
      "inputs": [
        {
          "internalType": "address",
          "name": "tokenAddress",
          "type": "address"
        }
      ],
      "name": "getBalance",
      "outputs": [
        {
          "internalType": "uint256",
          "name": "",
          "type": "uint256"
        }
      ],
      "stateMutability": "view",
      "type": "function"
    },
    {
      "inputs": [],
      "name": "owner",
      "outputs": [
        {
          "internalType": "address payable",
          "name": "",
          "type": "address"
        }
      ],
      "stateMutability": "view",
      "type": "function"
    },
    {
      "inputs": [
        {
          "internalType": "address",
          "name": "_token",
          "type": "address"
        },
        {
          "internalType": "uint256",
          "name": "_amount",
          "type": "uint256"
        }
      ],
      "name": "requestFlashLoan",
      "outputs": [],
      "stateMutability": "nonpayable",
      "type": "function"
    },
    {
      "inputs": [
        {
          "internalType": "address",
          "name": "tokenAddress",
          "type": "address"
        },
        {
          "internalType": "uint256",
          "name": "amount",
          "type": "uint256"
        }
      ],
      "name": "withdraw",
      "outputs": [],
      "stateMutability": "nonpayable",
      "type": "function"
    },
    {
      "stateMutability": "payable",
      "type": "receive"
    }
  ],
  "bytecode": "0x60c060405234801561001057600080fd5b50604051610ced380380610ced833981810160405281019061003291906101b3565b808073ffffffffffffffffffffffffffffffffffffffff1660808173ffffffffffffffffffffffffffffffffffffffff16815250508073ffffffffffffffffffffffffffffffffffffffff1663026b1d5f6040518163ffffffff1660e01b8152600401602060405180830381865afa1580156100b2573d6000803e3d6000fd5b505050506040513d601f19601f820116820180604052508101906100d691906101b3565b73ffffffffffffffffffffffffffffffffffffffff1660a08173ffffffffffffffffffffffffffffffffffffffff168152505050336000806101000a81548173ffffffffffffffffffffffffffffffffffffffff021916908373ffffffffffffffffffffffffffffffffffffffff160217905550506101e0565b600080fd5b600073ffffffffffffffffffffffffffffffffffffffff82169050919050565b600061018082610155565b9050919050565b61019081610175565b811461019b57600080fd5b50565b6000815190506101ad81610187565b92915050565b6000602082840312156101c9576101c8610150565b5b60006101d78482850161019e565b91505092915050565b60805160a051610ada61021360003960008181610220015281816102b2015261031f015260006101cf0152610ada6000f3fe6080604052600436106100745760003560e01c80638da5cb5b1161004e5780638da5cb5b14610113578063d54ba9541461013e578063f3fef3a314610167578063f8b2cb4f146101905761007b565b80630542975c146100805780631b11d0ff146100ab5780637535d246146100e85761007b565b3661007b57005b600080fd5b34801561008c57600080fd5b506100956101cd565b6040516100a29190610544565b60405180910390f35b3480156100b757600080fd5b506100d260048036038101906100cd9190610642565b6101f1565b6040516100df91906106f7565b60405180910390f35b3480156100f457600080fd5b506100fd6102b0565b60405161010a9190610733565b60405180910390f35b34801561011f57600080fd5b506101286102d4565b604051610135919061076f565b60405180910390f35b34801561014a57600080fd5b506101656004803603810190610160919061078a565b6102f8565b005b34801561017357600080fd5b5061018e6004803603810190610189919061078a565b6103b9565b005b34801561019c57600080fd5b506101b760048036038101906101b291906107ca565b610442565b6040516101c49190610806565b60405180910390f35b7f000000000000000000000000000000000000000000000000000000000000000081565b60008085876102009190610850565b90508773ffffffffffffffffffffffffffffffffffffffff1663095ea7b37f0000000000000000000000000000000000000000000000000000000000000000836040518363ffffffff1660e01b815260040161025d9291906108b5565b6020604051808303816000875af115801561027c573d6000803e3d6000fd5b505050506040513d601f19601f820116820180604052508101906102a0919061090a565b5060019150509695505050505050565b7f000000000000000000000000000000000000000000000000000000000000000081565b60008054906101000a900473ffffffffffffffffffffffffffffffffffffffff1681565b600030905060008390506000839050600060405180602001604052806000815250905060007f000000000000000000000000000000000000000000000000000000000000000073ffffffffffffffffffffffffffffffffffffffff166342b0b77c86868686866040518663ffffffff1660e01b815260040161037e9594939291906109ed565b600060405180830381600087803b15801561039857600080fd5b505af11580156103ac573d6000803e3d6000fd5b5050505050505050505050565b60008290508073ffffffffffffffffffffffffffffffffffffffff1663a9059cbb33846040518363ffffffff1660e01b81526004016103f99291906108b5565b6020604051808303816000875af1158015610418573d6000803e3d6000fd5b505050506040513d601f19601f8201168201806040525081019061043c919061090a565b50505050565b60008173ffffffffffffffffffffffffffffffffffffffff166370a08231306040518263ffffffff1660e01b815260040161047d9190610a47565b602060405180830381865afa15801561049a573d6000803e3d6000fd5b505050506040513d601f19601f820116820180604052508101906104be9190610a77565b9050919050565b600073ffffffffffffffffffffffffffffffffffffffff82169050919050565b6000819050919050565b600061050a610505610500846104c5565b6104e5565b6104c5565b9050919050565b600061051c826104ef565b9050919050565b600061052e82610511565b9050919050565b61053e81610523565b82525050565b60006020820190506105596000830184610535565b92915050565b600080fd5b600080fd5b6000610574826104c5565b9050919050565b61058481610569565b811461058f57600080fd5b50565b6000813590506105a18161057b565b92915050565b6000819050919050565b6105ba816105a7565b81146105c557600080fd5b50565b6000813590506105d7816105b1565b92915050565b600080fd5b600080fd5b600080fd5b60008083601f840112610602576106016105dd565b5b8235905067ffffffffffffffff81111561061f5761061e6105e2565b5b60208301915083600182028301111561063b5761063a6105e7565b5b9250929050565b60008060008060008060a0878903121561065f5761065e61055f565b5b600061066d89828a01610592565b965050602061067e89828a016105c8565b955050604061068f89828a016105c8565b94505060606106a089828a01610592565b935050608087013567ffffffffffffffff8111156106c1576106c0610564565b5b6106cd89828a016105ec565b92509250509295509295509295565b60008115159050919050565b6106f1816106dc565b82525050565b600060208201905061070c60008301846106e8565b92915050565b600061071d82610511565b9050919050565b61072d81610712565b82525050565b60006020820190506107486000830184610724565b92915050565b6000610759826104c5565b9050919050565b6107698161074e565b82525050565b60006020820190506107846000830184610760565b92915050565b600080604083850312156107a1576107a061055f565b5b60006107af85828601610592565b92505060206107c0858286016105c8565b9150509250929050565b6000602082840312156107e0576107df61055f565b5b60006107ee84828501610592565b91505092915050565b610800816105a7565b82525050565b600060208201905061081b60008301846107f7565b92915050565b7f4e487b7100000000000000000000000000000000000000000000000000000000600052601160045260246000fd5b600061085b826105a7565b9150610866836105a7565b9250827fffffffffffffffffffffffffffffffffffffffffffffffffffffffffffffffff0382111561089b5761089a610821565b5b828201905092915050565b6108af81610569565b82525050565b60006040820190506108ca60008301856108a6565b6108d760208301846107f7565b9392505050565b6108e7816106dc565b81146108f257600080fd5b50565b600081519050610904816108de565b92915050565b6000602082840312156109205761091f61055f565b5b600061092e848285016108f5565b91505092915050565b600081519050919050565b600082825260208201905092915050565b60005b83811015610971578082015181840152602081019050610956565b83811115610980576000848401525b50505050565b6000601f19601f8301169050919050565b60006109a282610937565b6109ac8185610942565b93506109bc818560208601610953565b6109c581610986565b840191505092915050565b600061ffff82169050919050565b6109e7816109d0565b82525050565b600060a082019050610a0260008301886108a6565b610a0f60208301876108a6565b610a1c60408301866107f7565b8181036060830152610a2e8185610997565b9050610a3d60808301846109de565b9695505050505050565b6000602082019050610a5c60008301846108a6565b92915050565b600081519050610a71816105b1565b92915050565b600060208284031215610a8d57610a8c61055f565b5b6000610a9b84828501610a62565b9150509291505056fea2646970667358221220aba7b6749f40e71eeb8604d06fa94755f70ca1050404e77f55cd225cfdf70e2c64736f6c634300080a0033",
  "linkReferences": {},
  "deployedLinkReferences": {}
}